:020000040800F2
:10000000C8C20524AD020008A96000089359000881
:10001000A5600008ED0C0008D57E00080000000077
:10002000000000000000000000000000DD63000888
:10003000F10C0008000000008903000821030008FB
:10004000C7020008C7020008C7020008C70200086C
:10005000C7020008C7020008C7020008C70200085C
:10006000C7020008C7020008C7020008C70200084C
:10007000C7020008C7020008C7020008C70200083C
:10008000C7020008C7020008C7020008C70200082C
:10009000C7020008C7020008C7020008C70200081C
:1000A000C7020008C7020008C7020008C70200080C
:1000B000C7020008C7020008C7020008C7020008FC
:1000C000C7020008C7020008C7020008C7020008EC
:1000D000C7020008C7020008C70200083D740008F4
:1000E000C7020008C702000800000000C70200089D
:1000F000C7020008C7020008C7020008C7020008BC
:10010000C7020008C7020008C7020008C7020008AB
:10011000C7020008C7020008C7020008C70200089B
:10012000C7020008C7020008C7020008C70200088B
:10013000C7020008C7020008C7020008C70200087B
:1001400000000000000000000000000000000000AF
:10015000C7020008C7020008C7020008C70200085B
:10016000C7020008C7020008C7020008C70200084B
:10017000C7020008C7020008C7020008000000000C
:10018000C7020008C7020008C7020008C70200082B
:10019000C7020008C7020008C7020008C70200081B
:1001A000C7020008C7020008C7020008C70200080B
:1001B000C7020008C7020008C7020008C7020008FB
:1001C000C7020008C7020008F5600008E5600008E3
:1001D000C702000805610008C7020008C70200083E
:1001E000C7020008C7020008C7020008C7020008CB
:1001F000C7020008C7020008C7020008C7020008BB
:10020000C7020008C7020008C7020008C7020008AA
:10021000C7020008C7020008C7020008C70200089A
:10022000C7020008C7020008C7020008000000005B
:10023000C7020008C702000800000000C70200084B
:10024000C7020008C7020008C7020008C70200086A
:10025000C7020008C7020008C7020008C70200085A
:10026000C7020008C7020008C7020008C70200084A
:10027000C7020008C7020008C7020008000000000B
:10028000C7020008C7020008C702000800000000FB
:1002900000000000C7020008DFF80CD000F0D0FB1F
:1002A000004800470DF00008C8C2052406488047F2
:1002B00006480047FEE7FEE7FEE7FEE7FEE7FEE74B
:1002C000FEE7FEE7FEE7FEE7AD64000899020008DE
:1002D00072B61748174901F1040101604FF0E020A0
:1002E0001549C0F8081D15481349096801604FF009
:1002F000E020134941614FF0070101614FF0000117
:10030000C0F8181D4FF07F41C0F81C1D0D49C0F802
:10031000201D7047FEE7FEE701B5BDE801407047CC
:1003200001B500F0A5F8BDE801407047FEE7FEE723
:1003300084180124C8C2052400000008EC18012418
:100340007F1A06000000FF40704700007047000061
:10035000EFF3108180F31088084670474FF00000DB
:10036000324A1060EFF3148020F0040080F3148808
:1003700062B64FF080504FF0E021C1F8040DBFF39A
:100380004F8FBFF36F8FFEE741F6F000C2F20140DE
:1003900041F6F402C2F201424FF000030168A9B134
:1003A0000360EFF3098C2CE9F00F1EF0100F01D160
:1003B0002CED108A41F65014C2F201444CF804EDC1
:1003C0002568C1F808C00DB18D61236072B611684F
:1003D000C9B1016062B64F6841F65014C2F20144DF
:1003E0008D6907F101074F602560D1F808C05CF8FE
:1003F00004EB1EF0100F01D1BCEC108ABCE8F00F2A
:100400008CF30988704772B61168016009B962B649
:10041000F9E74FF000674FF0E028C8F8047D62B6B6
:10042000D9E770477047B0EE400A704710190124B1
:10043000026922F00702A2F144026FF00203136086
:100440004FF0000353609360D36013615361936175
:10045000D361136253629362D362136353634FF0A9
:10046000FF339363D1634FF08073136482607047EE
:1004700041F62011C2F20141086800F10100086054
:1004800041F65013C2F201431A6852B1A2F10102BF
:100490001A6032B941F62413C2F201434FF0010051
:1004A000186041F63011C2F20141086802683AB1A1
:1004B00041F63413C2F201434FF001021A600EE01C
:1004C00000F1040041F62C13C2F201431A68904275
:1004D00004D141F62813C2F201431868086041F6BE
:1004E0002413C2F201431A682AB941F63411C2F248
:1004F0000141086868B301B541F63411C2F2014107
:10050000086808B10AF00EFE41F62413C2F2014356
:100510001A68E2B10AF018FD41F61010C2F201406B
:100520000168A1B941F6F000C2F20140016841F64C
:10053000F402C2F2014213684EF60450CEF20000FB
:1005400040F20002C1F20002994200D00260BDE810
:100550000140BFF34F8F70472DE9F05F0546002043
:1005600092469B4688460646814640241BE0284624
:1005700041464746224600F09AF853465A46C01A6A
:10058000914110D311461846224600F081F82D1AE9
:1005900067EB01084F4622460120002100F078F861
:1005A00017EB00094E41201EA4F10104DFDC484690
:1005B00031462A464346BDE8F09F40EA01039B07C7
:1005C00003D009E008C9121F08C0042AFAD203E0C8
:1005D00011F8013B00F8013B521EF9D27047D2B22C
:1005E00001E000F8012B491EFBD270470022F6E71C
:1005F00010B513460A4604461946FFF7F0FF204699
:1006000010BD421C10F8011B0029FBD1801A704755
:1006100010B5002200E0521C835C8C5CA34201D127
:10062000002BF8D1D8B2E1B2401A10BD30B5044663
:100630000020034600E05B1C934203D2E05CCD5CEB
:10064000401BF8D030BD30B505460020034600E021
:100650005B1C934205D2EC5CC85C201A01D1002CD3
:10066000F6D130BD30B50B460146002020220124D2
:1006700009E021FA02F59D4205D303FA02F5491B70
:1006800004FA02F52844151EA2F10102F1DC30BD86
:10069000202A04DB203A00FA02F100207047914042
:1006A000C2F1200320FA03F3194390407047202A37
:1006B00004DB203A21FA02F00021704721FA02F30C
:1006C000D040C2F1200291400843194670472DE9FD
:1006D000FE4F804681EA0300C00F0C46009021F0D7
:1006E000004123F00045B8EB0200A94105D2404685
:1006F000214690461C460B46024623F0004010431C
:1007000047D0270DC7F30A00C3F30A510290401ADD
:10071000019040286BDAC3F3130040F4801B00986B
:10072000924620B10023D2EB030A63EB0B0B019836
:100730005946C0F140025046FFF7AAFF06460D4653
:1007400050465946019A00F08DF910EB08006141BE
:10075000002487EA115284EAE7731A4340D0009AD2
:1007600062B3019A012A4FEA075215DC001B61EBC4
:1007700002014FF0004202EA0752CDE90042001C9C
:1007800041F5801132462B4600F08DF903B0BDE8EB
:10079000F08F40462146F9E7001B61EB0201001C87
:1007A00041F5801300185B412018A2F5001747EBB4
:1007B000030140EAD570B6196D4111E06D084FEAAA
:1007C000360645EAC0754FEA0752001B61EB02018D
:1007D000001C41F5801149084FEA300000195141D1
:1007E00032462B4603B0BDE8F04F00F04DB90098FB
:1007F000012240000023D0EB020263EBE07300987B
:1008000021464FEAE074B8EB000061EB0401E9E730
:1008100083F000435BE781F0004158E72DE9FE4F8C
:1008200081EA030404F0004421F0004100944FF0F9
:10083000000B23F0004350EA01045ED052EA0304A7
:100840005BD0C3F30A54C1F30A552C44A4F2F33429
:100850000194A0FB0254C1F3130141F48011C3F3CE
:10086000130343F4801301FB024400FB034E840A8C
:10087000970A44EA815447EA8357A4FB0768029524
:100880008D0A05FB07854FEA932C04FB0C542705C2
:10089000029D4FEA065847EA1637B5EB08056EEB9E
:1008A000070C870E920E47EA811742EA8312A7FBD4
:1008B0000201B6EB0B0164EB00042B0D43EA0C3391
:1008C0005E1844EB1C50DA465146E7FB0201C5F3C3
:1008D00013044FEA0B3343EA14534FEA0432019CEA
:1008E00043EA0603A4F10C040294009CCDE900B491
:1008F00000F0D9F803B0BDE8F08F00200146F9E719
:100900002DE9F04D81EA030404F0004B21F000458D
:1009100014464FF0000A23F0004150EA050220D0AF
:1009200054EA01021DD0C5F30A570246C5F313036A
:10093000C1F31300C1F30A5640F4801543F4801349
:10094000A7EB0608101BD64608F2FD3873EB05002E
:1009500002D308F1010801E092185B41B8F1000FE1
:1009600003DA00200146BDE8F08D00204FF480112D
:10097000064684460EE0171B73EB050705D3121BD2
:1009800063EB050306434CEA010C49084FEA3000CB
:1009900092185B4150EA0107EDD152EA030012D0F0
:1009A00082EA040083EA0501084305D0101BAB412D
:1009B00006D20122002306E000224FF0004302E0AD
:1009C0006FF0010253101AEB06004CEB085110EBCC
:1009D0000A0041EB0B01BDE8F04D00F055B8C1F342
:1009E0000A52C1F3130140F2FF3341F480119A42DD
:1009F00002DA00200146704740F233439A42A2F2E5
:100A0000334202DC5242FFF752BEFFF741BE000004
:100A100030B5041E71F1000404DB4FF00044404285
:100A200064EB0101141E73F1000405DB1C464FF05A
:100A30000043524263EB0403994208BF904230BD29
:100A4000064C074D06E0E06840F0010394E807001B
:100A500098471034AC42F6D3FFF722FC0017010888
:100A600020170108202A06DBCB17203A41FA02F0B2
:100A700043EAE07306E041FA02F3D040C2F12002FB
:100A8000914008431946704710B5141E73F10004D5
:100A900008DA401C41F1000192185B411A4301D170
:100AA00020F0010010BD2DE9F04D92469B4611B19A
:100AB000B1FA81F202E0B0FA80F220329046FFF7FC
:100AC000E7FD04460F4640EA0A0041EA0B0153469F
:100AD0005A46084313D0114653EA010019D0C8F111
:100AE00040025046FFF7E3FD05460E465046594684
:100AF0004246FFF7CDFD084305D0012004E0204623
:100B00003946BDE8F08D0020054346EAE0762C43E7
:100B100037430A986305E40AA0EB08000022FD0AA7
:100B200044EA47540A3002D500200146E9E70105AE
:100B300010196941DDE9084500196941BDE8F04D2A
:100B4000A2E770B58C1810F8015B15F0070301D10E
:100B500010F8013B2A1106D110F8012B03E010F820
:100B6000016B01F8016B5B1EF9D12B0705D4002343
:100B7000521E0DD401F8013BFAE710F8013BCB1AE5
:100B8000921C03E013F8015B01F8015B521EF9D5DA
:100B9000A142D8D3002070BD00B587B0B420012198
:100BA00000220423CDE90332CDE905108902194A58
:100BB000CDE9011300920023174A18A11B480BF03E
:100BC0007DF8B420012100220523CDE90332CDE9CF
:100BD00005108902164ACDE9011300920023154A37
:100BE00015A119480BF06AF8B420012100221F2337
:100BF000CDE90332CDE905108902144ACDE901138C
:100C000000920023124A13A116480BF057F807B0C0
:100C100000BD0000A84F0424196600085468652030
:100C20004C4544205461736B00000000F04E0424D6
:100C300060540424E5650008546865204B4559203C
:100C40005461736B00000000A85304241859042455
:100C5000C56500085468652049444C4520546173BB
:100C60006B0000006058042400B587B0142102A86E
:100C7000FFF7BCFC00BF1548006840F004001349B2
:100C800008600846006800F00400019000BF00BF43
:100C90004FF4005002900E4803900020049002A9E7
:100CA0000C4800F071FC00221146082001F0F2FA15
:100CB000082001F0DBFA00221146092001F0EAFACF
:100CC000092001F0D3FA07B000BD0000E04402584B
:100CD000000011110008025810B54FF400510248ED
:100CE00000F056FD10BD00000008025800BFFEE7EE
:100CF000704770B505460C4604B970BD02E0C820C7
:100D000000F03CFCFBE700002DE9F041044600F058
:100D100053FD804614B90120BDE8F08194F83500F8
:100D2000022808D08020606500BF002084F83400CD
:100D300000BF0120F0E7FE492068884249D0FC4905
:100D400018312068884244D0F949303120688842FF
:100D50003FD0F7494831206888423AD0F4496031A1
:100D60002068884235D0F24978312068884230D0F6
:100D7000EF499031206888422BD0ED49A831206896
:100D8000884226D0EB492068884222D0E9491831B0
:100D9000206888421DD0E74930312068884218D049
:100DA000E44948312068884213D0E2496031206824
:100DB00088420ED0DF4978312068884209D0DD4969
:100DC00090312068884204D0DA49A83120688842EE
:100DD00001D1012000E0002068B12068006820F007
:100DE0001E00216808602068406920F080002168AA
:100DF0004861256806E02068006820F00E00216840
:100E000008602568CA492068884270D0C8491831EE
:100E1000206888426BD0C64930312068884266D04D
:100E2000C34948312068884261D0C1496031206897
:100E300088425CD0BE4978312068884257D0BC498E
:100E400090312068884252D0B949A8312068884240
:100E50004DD0B8492068884249D0B6491831206839
:100E6000884244D0B3493031206888423FD0B149EC
:100E70004831206888423AD0AE49603120688842C3
:100E800035D0AC4978312068884230D0A9499031BA
:100E9000206888422BD0A749A8312068884226D0F4
:100EA000A5492068884222D0A3491431206888428D
:100EB0001DD0A14928312068884218D09E493C3174
:100EC0002068884213D09C495031206888420ED057
:100ED000994964312068884209D09749783120685F
:100EE000884204D094498C312068884201D1012085
:100EF00000E0002028B1206E006820F48070216E90
:100F000008608B492068884249D089491831206897
:100F1000884244D086493031206888423FD0844995
:100F20004831206888423AD081496031206888423F
:100F300035D07F4978312068884230D07C49903163
:100F4000206888422BD07A49A8312068884226D070
:100F500078492068884222D0764918312068884232
:100F60001DD0744930312068884218D07149483109
:100F70002068884213D06F496031206888420ED0C3
:100F80006C4978312068884209D06A4990312068DC
:100F9000884204D06749A8312068884206D1206879
:100FA000006820F001002168086005E02068006802
:100FB00020F001002168086011E000F0FDFBA0EBCB
:100FC000080005280BD92020606500BF002084F8A8
:100FD000340000BF032084F8350001209CE6286817
:100FE00000F001000028E8D151492068884249D02A
:100FF0004F4918312068884244D04D49303120682B
:1010000088423FD04A494831206888423AD048490E
:1010100060312068884235D045497831206888425F
:1010200030D043499031206888422BD04049A831C4
:101030002068884226D03F492068884222D03D4916
:101040001831206888421DD03A49303120688842E2
:1010500018D0384948312068884213D0354960316A
:10106000206888420ED0334978312068884209D000
:10107000304990312068884204D02E49A831206838
:10108000884201D1012000E0002040B1A66D94F813
:101090005C0000F01F013F208840B06007E0A76DB2
:1010A00094F85C0000F01F0101208840786020491E
:1010B0002068884276D01E4918312068884271D055
:1010C0001B493031206888426CD01949483120686A
:1010D000884267D0164960312068884262D014493E
:1010E0007831206888425DD011499031206888426B
:1010F00058D00F49A8312068884253D00D49206844
:1011000088424FD00B491831206888424AD009499B
:1011100030312068884245D00649483120688842ED
:1011200040D004496031206888423BD0014905E045
:101130001000024010040240085402587831206820
:1011400088422FD02549206888422BD02349183166
:101150002068884226D022492068884222D020492F
:101160001431206888421DD01D49283120688842EA
:1011700018D01B493C312068884213D0184950319F
:10118000206888420ED0164964312068884209D010
:10119000134978312068884204D011498C31206885
:1011A000884201D1012000E0002068B1D4E9191083
:1011B0004860E06E40B1E06E006820F48070E16E3F
:1011C0000860D4E91C10486000BF002084F8340097
:1011D00000BF012084F8350000209DE5A0040240F6
:1011E0000854025870B504460CB9012070BD94F83B
:1011F0003500022803D0802060650120F6E7DC4935
:101200002068884249D0DA4918312068884244D0A1
:10121000D7493031206888423FD0D54948312068CD
:1012200088423AD0D24960312068884235D0D049CE
:1012300078312068884230D0CD499031206888428A
:101240002BD0CB49A8312068884226D0C9492068D4
:10125000884222D0C7491831206888421DD0C5492C
:1012600030312068884218D0C2494831206888420D
:1012700013D0C0496031206888420ED0BD49783112
:101280002068884209D0BB4990312068884204D048
:10129000B849A8312068884201D1012000E000202F
:1012A000F0B3042084F83500B149206888424BD05F
:1012B000AF4918312068884246D0AD4930312068A6
:1012C000884241D0AA494831206888423CD0A84988
:1012D00060312068884237D0A5497831206888423B
:1012E00032D0A3499031206888422DD0A049A8313E
:1012F0002068884228D09F492068884224D09D4990
:101300001831206888421FD09A49303120688842BD
:101310001AD0984948312068884215D0954900E094
:1013200020E06031206888420ED0924978312068F0
:10133000884209D08F4990312068884204D08D4975
:10134000A8312068884206D12068006820F001009A
:101350002168086009E12068006820F00100216828
:10136000086002E12068006820F00E002168086033
:101370007F492068884249D07D49183120688842D9
:1013800044D07B493031206888423FD07849483189
:10139000206888423AD0764960312068884235D04A
:1013A000734978312068884230D071499031206883
:1013B00088422BD06E49A8312068884226D06D49DA
:1013C0002068884222D06B491831206888421DD09D
:1013D000684930312068884218D066494831206811
:1013E000884213D063496031206888420ED0614939
:1013F00078312068884209D05E499031206888425F
:1014000004D05C49A8312068884206D12068006871
:1014100020F001002168086005E02068006820F0E5
:1014200001002168086052492068884270D0504904
:101430001831206888426BD04D493031206888428D
:1014400066D04B4948312068884261D048496031B4
:10145000206888425CD0464978312068884257D05D
:10146000434990312068884252D04149A8312068D0
:1014700088424DD03F492068884249D03D491831C3
:101480002068884244D03B493031206888423FD0B0
:1014900038494831206888423AD03649603120685E
:1014A000884235D0334978312068884230D031497C
:1014B0009031206888422BD02E49A831206888427C
:1014C00026D02D492068884222D02B49143120682B
:1014D00088421DD0284928312068884218D02649E2
:1014E0003C312068884213D023495031206888421B
:1014F0000ED0214964312068884209D01E497831D4
:101500002068884204D01C498C312068884201D16F
:10151000012000E00020D8B1206E006820F4807027
:10152000216E0860A56D94F85C0000F01F01012099
:1015300088406860D4E919104860E06E40B1E06E00
:10154000006820F48070E16E0860D4E91C104860E7
:1015500000BF002084F8340000BF012084F835006B
:10156000206D10B12046216D884700203EE6000026
:1015700010000240100402400854025810B50446FE
:1015800020460DF097FC10BDF8B502460023734DC0
:10159000DEE001279F400E6806EA0704002C71D0A8
:1015A0004E68012E08D04E68022E05D04E68112ECE
:1015B00002D04E68122E13D190685F000326BE4001
:1015C000B0435F00CE68BE40304390605068012653
:1015D0009E40B0430E79C6F300169E4030435060E3
:1015E000D0685F000326BE40B0435F008E68BE40F7
:1015F0003043D0604E68022E02D04E68122E13D1B6
:10160000DF0802F1200656F827005E07F70E0F26C6
:10161000BE40B0435F07FF0E0E69BE403043DF0897
:1016200002F1200646F8270010685F000326BE403E
:10163000B0430E7906F003065F00BE4030431060F1
:101640004E6806F08056B6F1805F1BD100BF444E55
:10165000366846F00206424F3E603E46366806F067
:101660000206009600BF00BF3E4E9F0856F82700B6
:101670009E07370F0F26BE40B0433B4EB24202D109
:1016800000262EE063E0394EB24201D1012628E067
:10169000374EB24201D1022623E0364EB24201D18A
:1016A00003261EE0344EB24201D1042619E0334E27
:1016B000B24201D1052614E0314EB24201D10626D4
:1016C0000FE0304EB24201D107260AE02E4EB24260
:1016D00001D1082605E02D4EB24201D1092600E0D5
:1016E0000A269F073F0FBE4030431E4E9F0846F814
:1016F00027002868A0434E6806F48036B6F5803F80
:1017000000D1204328606868A0434E6806F4003684
:10171000B6F5003F00D1204368604FF0B046306816
:10172000A0434E6806F48016B6F5801F00D1204312
:101730004FF0B04630607068A0434E6806F4001663
:10174000B6F5001F00D120434FF0B04670605B1C1F
:101750000E68DE40002E7FF41CAFF8BD80000058FC
:10176000F4440258080400580000025800040258CB
:1017700000080258000C02580010025800140258C9
:1017800000180258001C0258002002580024025879
:10179000024613690B400BB1012000E000207047A6
:1017A0000AB1816101E00B04836170470148006860
:1017B000000C70470010005C10B50F48006810B9AD
:1017C00009F0A4FC10BD0D480068840B0CE000BFBC
:1017D00000BF00BF00BF00BF00BF00BF00BF00BF11
:1017E00000BF00BF00BF641E002CF0D10448006899
:1017F000401C03490860E5E7001901244C18012446
:101800003418012470B50646D6F800536C6F286D65
:10181000401C2865A06C40F00100A064A06C20F082
:101820000200A06402480068DC300DF0B9FA70BD17
:10183000601A012470B50646D6F800536C6F286D07
:10184000401C2865A06C40F00200A064A06C20F051
:101850000100A06402480068DC300DF0A1FA70BD00
:10186000601A012410B50446206805F005FF10BD7C
:1018700010B50446206805F006FF10BD024601EBD6
:10188000410000EBC10302F1380000EB83008069E6
:10189000704770B504460D46002600BF94F8F80264
:1018A000012801D1022070BD012084F8F80200BF98
:1018B0002946206805F0F8FE00BF002084F8F802F1
:1018C00000BF3046EFE72DE9FE4F04460D461646B1
:1018D0001F46DDE90D9ADDF8308000BF94F8F8026C
:1018E000012802D10220BDE8FE8F012084F8F80211
:1018F00000BF002105EB450000EBC50204F13800F4
:1019000000EB8200417105EB450000EBC50104F1DD
:10191000380000F8217005EB450000EBC50104F12B
:10192000380000EB8100A0F808A005EB450000EBB3
:10193000C50104F1380000EB8100457005EB45005E
:1019400000EBC50104F1380000EB810080F807903E
:1019500006F07F0105EB450000EBC50204F13800FD
:1019600000EB8200817006F0800080280AD10121FE
:1019700005EB450000EBC50204F1380000EB8200E6
:10198000C17009E0002105EB450000EBC50204F140
:10199000380000EB8200C17005EB450000EBC5018B
:1019A00004F1380000EB810080F804808DE8000726
:1019B0003B4632462946206805F04EFF834600BF6D
:1019C000002084F8F80200BF58468CE72DE9FF4755
:1019D000804689461646012E05D0052E03D0042EDA
:1019E00001D0022E78D1D8F800A3DAF874700FB9BC
:1019F000BDE8FF8707F1080050F8295025B949468E
:101A00004046FFF746FFF3E7AC6824B94946404635
:101A1000FFF73FFFECE7022E5FD0012E04D0052E2A
:101A20004BD1212060654BE06868007E00F0030028
:101A300048B1207D00F08000802804D1697BF86CDB
:101A4000FFF71CFF20616868007E00F00300022899
:101A500004D06868007E00F0030058BB207D00F0D1
:101A6000800038BBA16D206908442061D4E90301DE
:101A700088421FD9D4E90301411A6868C0698142CC
:101A800002D96868C06902E0D4E90301401AA06580
:101A90000022B4F8580080B22369A16819440123D8
:101AA000CDE90031CDE90202697B0223F86C00F038
:101AB00041F89DE70020606502E02320606500BFDB
:101AC00000BFE06DA860606A10B12046616A884777
:101AD00004F128000DF064F92AE0287B032808D0DF
:101AE000287B052805D0287B072802D0287B0928D9
:101AF0001ED10022B4F8580080B22369A1681944AD
:101B00002B7B032B01D0012300E00023CDE9003122
:101B1000CDE902026A68127E02F00302022A00D1B5
:101B200000E000221346697B0022F86C00F002F806
:101B300000BF5DE72DE9F05F04460D4616461F46DF
:101B4000DDE90C9BDDE90A8A05EB450000EBC501E8
:101B500004F1380000EB8100C67005EB450000EB96
:101B6000C50104F1380000EB8100C771B8F1000F26
:101B700014D1032105EB450000EBC50204F1380048
:101B800000EB8200817205EB450000EBC50104F11A
:101B9000380000EB810080F805B009E0022105EB78
:101BA000450000EBC50204F1380000EB82008172B1
:101BB00037B1012F76D0022F33D0032F73D173E0CA
:101BC000B8F1010F2CD106BBB9F1000F09D10121E9
:101BD00005EB450000EBC50204F1380000EB820084
:101BE000417705EB450000EBC50104F1380000EB3F
:101BF0008100407F50B9002105EB450000EBC50294
:101C000004F1380000EB8200817209E0022105EB4B
:101C1000450000EBC50204F1380000EB8200817240
:101C20008FE0FEB905EB450000EBC50104F138007B
:101C300000EB8100407F50B9002105EB450000EB2F
:101C4000C50204F1380000EB8200817229E0022114
:101C500005EB450000EBC50204F1380000EB820003
:101C600081721EE005EB450000EBC50104F1380070
:101C700000EB8100007F50B9002105EB450000EB2F
:101C8000C50204F1380000EB8200817209E00221F4
:101C900005EB450000EBC50204F1380000EB8200C3
:101CA00081724EE041E04BE0FEB905EB450000EBF0
:101CB000C50104F1380000EB8100407F50B90021DC
:101CC00005EB450000EBC50204F1380000EB820093
:101CD000817229E0022105EB450000EBC50204F109
:101CE000380000EB820081721EE005EB450000EB3E
:101CF000C50104F1380000EB8100007F50B90021DC
:101D000005EB450000EBC50204F1380000EB820052
:101D1000817209E0022105EB450000EBC50204F1E8
:101D2000380000EB820081720BE0002105EB4500DA
:101D300000EBC50204F1380000EB8200817200E084
:101D400000BF00BF05EB450000EBC50104F1380002
:101D500000EB8100C0F80CA005EB450000EBC501CD
:101D600004F1380000EB8100C0F81490002105EB6D
:101D7000450000EBC50204F1380000EB820080F85A
:101D8000281005EB450000EBC50204F1380000EB1C
:101D90008200816105EB450000EBC50104F13800CC
:101DA00000EB81004570002105EB450000EBC5020A
:101DB00004F1380000EB820080F82910227C05EB4A
:101DC000450303EBC50C04F1380303EB8C012068D9
:101DD00005F01CFEBDE8F09F2DE9F0410446D4F863
:101DE00000804746206805F05AFC01287DD1206814
:101DF00005F092FF08B9BDE8F081206805F08CFF7E
:101E000000F40010B0F5001F03D14FF4001021685A
:101E10004861206805F080FF00F48010B0F5801F55
:101E200003D14FF4801021684861206805F074FFE9
:101E300000F08060B0F1806F03D14FF080602168C6
:101E40004861206805F068FF00F00200022801D117
:101E500021684861206805F05FFF00F00050B0F194
:101E6000005F0FD14FF0005021684861D7F840045F
:101E700000F0010030B92046FFF7DCFC01212068AA
:101E800005F028FF206805F047FF00F08070B0F1F2
:101E9000807F02D1204603F05FFC206805F03CFF04
:101EA00000F00800082805D1204600F0FFF80820BF
:101EB00021684861206805F02FFFC0F3001070B161
:101EC0002068806920F0100021688861204603F0B6
:101ED0009EFC2068806940F01000216888612068BD
:101EE00005F01AFF00F0007000E029E0B0F1007F7B
:101EF00026D1206805F082FD0646002519E005F090
:101F00000F0101208840304090B107F5A06000EB40
:101F10004510006800F40040B0F5004F04D1E9B26C
:101F2000204602F0C6FC03E0E9B2204603F072F856
:101F30006D1CA068A842E2D84FF00070216848618B
:101F400000BF58E730B58BB0044614B901200BB080
:101F500030BD256894F8F90228B9002084F8F80209
:101F6000204600F029F8032084F8F902E86B00F419
:101F7000807008B900212161206805F0F9FA282253
:101F800004F110016846FEF718FB94E80F0005F015
:101F90007DFA0121206805F012FF282204F11001CA
:101FA0006846FEF70AFB94E80F0005F017FE0120D3
:101FB00084F8F9020020CAE710B5B6B0044614212F
:101FC00031A8FEF713FBBC2102A8FEF70FFB304936
:101FD000206888425AD14FF48020029080002390DC
:101FE00002A800F025FC08B1FEF783FE00F0D4F94A
:101FF00000BF2848006840F00100264908600846F4
:10200000006800F00100019000BF00BF4FF4C8500D
:102010003190022032900020339034900A20359085
:1020200031A91D48FFF7B0FA4FF40070319000203D
:102030003290339031A91848FFF7A6FA00BF15482F
:102040000838006840F00060124908390860084606
:10205000006800F00060019000BF00BF0022114640
:10206000622000F017F9622000F000F9002211460A
:10207000632000F00FF9632000F0F8F80022062139
:10208000652000F007F9652000F0F0F836B010BDCB
:1020900000000840E04402580000025870477047B2
:1020A00010B50446206805F06CFE10BD70B50646FC
:1020B000D6F80043656F95F8480000F0040060B959
:1020C000A86C40F00400A864606E401C6066034881
:1020D000006800F5DC700CF063FE70BD601A01242E
:1020E00010B5044600BF94F8F802012801D102207F
:1020F00010BD012084F8F80200BF206805F087FABF
:102100000121206805F05EFA00BF002084F8F80283
:1021100000BF00BFECE7000010B5032000F0F8F8A6
:1021200001F012FB10490968C1F303210F4A515C09
:1021300001F01F0120FA01F40B48006800F00F00C5
:102140001146085C00F01F0024FA00F008490860FE
:1021500008480460002000F00FF808B1012010BD0D
:1021600000F072F80020FAE718440258A80F01089E
:10217000501801244C18012401460020704700002B
:102180004178154A11600178F9B1121D416811605A
:10219000017B0907C27A41EA0261827A41EAC241BF
:1021A000427B41EA8241827B41EA4241C27B41EA71
:1021B0000241427A41EA0221027A41EA420102786E
:1021C0001143054A0832116005E00021024A121D40
:1021D0001160121D1160704798ED00E000BF00BF54
:1021E00000BFBFF35F8F00BF00BF00BF054800689E
:1021F00020F48030034908600020024970310860F3
:102200007047000024ED00E040F001010D4A11602C
:102210000C497039096841F480310A4A703A1160FA
:1022200000BF00BF00BFBFF34F8F00BF00BF00BFA4
:1022300000BF00BF00BFBFF36F8F00BF00BF00BF74
:102240007047000094ED00E008B500BF0648006844
:1022500040F00200044908600846006800F00200EF
:10226000009000BF00BF08BDF44402580146084674
:1022700000280DDB00BF00BF00F01F0301229A40C1
:1022800043099B0003F1E023C3F8002100BF00BF16
:1022900000BF70472DE9F05F80460D46164605F0F9
:1022A00041FE074639462A46334601F00700C0F191
:1022B000070ABAF1040F02D94FF0040A01E0C0F195
:1022C000070AD14600F1040ABAF1070F02D24FF013
:1022D000000A01E0A0F1030AD4464FF0010A0AFA0D
:1022E00009FAAAF1010A0AEA020A0AFA0CFA4FF0FC
:1022F000010B0BFA0CFBABF1010B0BEA030B4AEAE7
:102300000B042146404605F015FEBDE8F09F000095
:1023100000BF00F00702064B19684FF6FF03194093
:10232000044B0B4343EA0221014B196000BF704785
:102330000CED00E00000FA0570B504461548006891
:10234000C0F3800048B91348006800F00700A042BD
:1023500001D0012070BD0020FCE70E48006820F08D
:10236000070020430B490860FFF726FA054607E0FF
:10237000FFF722FA401BB0F57A7F01D90120E9E787
:10238000044808380068C0F340300028F0D000202E
:10239000E0E700000C4802580348006840F08070F5
:1023A00001490860704700000C48025810B501F060
:1023B00081F905490968C1F30211044A515C01F031
:1023C0001F01C84010BD000020440258A80F01089A
:1023D00070B50146844D2D6805F00303824D2D68CC
:1023E000C5F30530804D2D1D2D68C5F300147E4DBD
:1023F00014352D68C5F3CC0515FB04F501EE105A14
:10240000B8EE411AF0EE410A00286FD023B1012B3B
:102410004ED0022B6BD16BE0734D283D2D68C5F378
:1024200040153DB3704D283D2D68C5F3C1066F4D75
:1024300025FA06F201EE102AF8EE411A01EE100A12
:10244000B8EE411A81EE812A9FED691AC0EE811A19
:10245000654D10352D68C5F3080501EE105AB8EE2C
:10246000411A31EE811AF7EE001A31EE211A22EEEE
:10247000010A1CE001EE100AB8EE411ADFED5D1A08
:1024800081EE812A9FED5A1AC0EE811A564D103501
:102490002D68C5F3080501EE105AB8EE411A31EE69
:1024A000811AF7EE001A31EE211A22EE010A5BE0E2
:1024B00001EE100AB8EE411ADFED4F1A81EE812AC3
:1024C0009FED4B1AC0EE811A474D10352D68C5F3AC
:1024D000080501EE105AB8EE411A31EE811AF7EEF6
:1024E000001A31EE211A22EE010A3DE077E01DE0EC
:1024F00001EE100AB8EE411A9FED402AC2EE011A11
:102500009FED3B1A80EE812A374D10352D68C5F3BB
:10251000080501EE105AB8EE411A32EE011AB7EE74
:10252000002A31EE021A21EE810A1DE001EE100AA6
:10253000B8EE411ADFED301A81EE812A9FED2C1A98
:10254000C0EE811A284D10352D68C5F3080501EE3F
:10255000105AB8EE411A31EE811AF7EE001A31EE38
:10256000211A22EE010A00BF00BF1F4D10352D6851
:10257000C5F3462501EE105AB8EE411AF7EE001ADF
:1025800031EE211AC0EE011ABCEEE11A81ED001AFB
:10259000154D10352D68C5F3064501EE105AB8EEFD
:1025A000411AF7EE001A31EE211AC0EE011ABCEE04
:1025B000E11A81ED011A0C4D10352D68C5F3066541
:1025C00001EE105AB8EE411AF7EE001A31EE211A58
:1025D000C0EE011ABCEEE11A81ED021A03E00025FB
:1025E0000D604D608D6070BD284402580090D0038E
:1025F000000000460024744C0024744A0024F44A6D
:1026000070B50146844D2D6805F00303824D2D6899
:10261000C5F30550804D2D1D2D68C5F300247E4D5A
:102620001C352D68C5F3CC0515FB04F501EE105AD9
:10263000B8EE411AF0EE410A00286FD023B1012B09
:102640004ED0022B6BD16BE0734D283D2D68C5F346
:1026500040153DB3704D283D2D68C5F3C1066F4D43
:1026600025FA06F201EE102AF8EE411A01EE100AE0
:10267000B8EE411A81EE812A9FED691AC0EE811AE7
:10268000654D18352D68C5F3080501EE105AB8EEF2
:10269000411A31EE811AF7EE001A31EE211A22EEBC
:1026A000010A1CE001EE100AB8EE411ADFED5D1AD6
:1026B00081EE812A9FED5A1AC0EE811A564D1835C7
:1026C0002D68C5F3080501EE105AB8EE411A31EE37
:1026D000811AF7EE001A31EE211A22EE010A5BE0B0
:1026E00001EE100AB8EE411ADFED4F1A81EE812A91
:1026F0009FED4B1AC0EE811A474D18352D68C5F372
:10270000080501EE105AB8EE411A31EE811AF7EEC3
:10271000001A31EE211A22EE010A3DE077E01DE0B9
:1027200001EE100AB8EE411A9FED402AC2EE011ADE
:102730009FED3B1A80EE812A374D18352D68C5F381
:10274000080501EE105AB8EE411A32EE011AB7EE42
:10275000002A31EE021A21EE810A1DE001EE100A74
:10276000B8EE411ADFED301A81EE812A9FED2C1A66
:10277000C0EE811A284D18352D68C5F3080501EE05
:10278000105AB8EE411A31EE811AF7EE001A31EE06
:10279000211A22EE010A00BF00BF1F4D18352D6817
:1027A000C5F3462501EE105AB8EE411AF7EE001AAD
:1027B00031EE211AC0EE011ABCEEE11A81ED001AC9
:1027C000154D18352D68C5F3064501EE105AB8EEC3
:1027D000411AF7EE001A31EE211AC0EE011ABCEED2
:1027E000E11A81ED011A0C4D18352D68C5F3066507
:1027F00001EE105AB8EE411AF7EE001A31EE211A26
:10280000C0EE011ABCEEE11A81ED021A03E00025C8
:102810000D604D608D6070BD284402580090D0035B
:10282000000000460024744C0024744A0024F44A3A
:102830002DE9F04104460025A846206800F000601C
:10284000B0F1006F30D1606E48B1B0F5801F0DD08F
:10285000B0F5001F10D0B0F5401F15D113E0F948B6
:10286000006840F40030F74908600FE00221201DA5
:1028700003F050FC054609E0022104F1240003F0B6
:10288000FBFC054602E001E0012500BF00BF55B991
:10289000EC482430006820F44010616E0843E94998
:1028A0002431086000E0A846208800F48070B0F56C
:1028B000807F2DD1606D05281AD2DFE800F0030A71
:1028C00010171800DF48006840F40030DD49086048
:1028D00010E00021201D03F01DFC05460AE0002148
:1028E00004F1240003F0C8FC054603E002E001E027
:1028F000012500BF00BF55B9D2482430006820F040
:102900000700616D0843CF492431086000E0A84604
:10291000208800F40070B0F5007F33D1A06D8028CE
:1029200017D003DC40B140281CD10CE0C02817D0E0
:10293000B0F5807F16D114E0C248006840F4003042
:10294000C049086010E00021201D03F0E3FB0546AC
:102950000AE0002104F1240003F08EFC054603E0A8
:1029600002E001E0012500BF00BF55B9B5482430A1
:10297000006820F4E070A16D0843B249243108607A
:1029800000E0A846208800F48060B0F5806F38D160
:10299000D4F8A400B0F5800F19D004DC50B1B0F524
:1029A000001F1DD10DE0B0F5C00F17D0B0F5000F1E
:1029B00016D114E0A348006840F40030A149086033
:1029C00010E00021201D03F0A5FB05460AE00021D0
:1029D00004F1240003F050FC054603E002E001E0AE
:1029E000012500BF00BF5DB996482C30006820F477
:1029F0006000D4F8A410084392492C31086000E02C
:102A0000A846208800F40060B0F5006F38D1D4F8F3
:102A1000A800B0F1007F19D004DC50B1B0F1807F84
:102A20001DD10DE0B0F1407F17D0B0F1806F16D10D
:102A300014E08448006840F400308249086010E0E7
:102A40000021201D03F066FB05460AE0002104F189
:102A5000240003F011FC054603E002E001E001253B
:102A600000BF00BF5DB977482C30006820F0E060FF
:102A7000D4F8A810084373492C31086000E0A84638
:102A8000206800F00070B0F1007F27D1A06CA0B1E9
:102A9000102804D0202809D030280FD10CE0694834
:102AA000006840F400306749086009E00221201DF9
:102AB00003F030FB054603E002E001E0012500BF22
:102AC00000BF55B95F482030006820F03000A16C8D
:102AD00008435C492031086000E0A846208800F4E3
:102AE0008050B0F5805F36D1E06DB0F5005F19D051
:102AF00004DC50B1B0F5805F1DD10DE0B0F5405F52
:102B000017D0B0F5804F16D114E04E48006840F45D
:102B100000304C49086010E00021201D03F0FAFA53
:102B200005460AE0002104F1240003F0A5FB054658
:102B300003E002E001E0012500BF00BF55B94148B4
:102B40002430006820F4E040E16D08433D49243121
:102B5000086000E0A846208800F40050B0F5005F4F
:102B600034D1206EB0F5403F1DD007DC68B1B0F520
:102B7000803F0BD0B0F5003F18D10DE0B0F5802FAD
:102B800012D0B0F5A02F11D10FE011E00121201DCE
:102B900003F0C0FA05460BE0012104F1240003F024
:102BA0006BFB054604E003E002E001E0012500BF05
:102BB00000BF55B923482430006820F4E020216E7E
:102BC000084320492431086000E0A846208800F42A
:102BD0008040B0F5804F38D1D4F8AC00B0F1405F00
:102BE0001DD007DC68B1B0F1805F0BD0B0F1005FA1
:102BF00018D10DE0B0F1804F12D0B0F1A04F11D13B
:102C00000FE011E00121201D03F084FA05460BE0DE
:102C1000012104F1240003F02FFB054604E003E04A
:102C200002E001E0012500BF00BF6DB905482C306E
:102C3000006820F0E040D4F8AC10084301492C3182
:102C4000086002E02C440258A846208800F40040A6
:102C5000B0F5004F26D1E06E98B1B0F1805F03D09F
:102C6000B0F1005F0ED106E0F948006840F4003092
:102C7000F749086008E00121201D03F04BFA0546E2
:102C800002E001E0012500BF00BF55B9F048243043
:102C9000006820F04050E16E0843ED49243108609F
:102CA00000E0A846206800F08070B0F1807F27D156
:102CB000606CA0B1012804D0022809D003280FD1EC
:102CC0000CE0E348006840F40030E149086009E0A6
:102CD0000221201D03F01EFA054603E002E001E098
:102CE000012500BF00BF55B9D9482030006820F049
:102CF0000300616C0843D6492031086000E0A84613
:102D0000206800F48000B0F5800F7DD1D1480068C4
:102D100040F48070CF490860FEF74EFD064606E09D
:102D2000FEF74AFD801B642801D9032505E0C94848
:102D3000006800F480700028F2D000BF85BBC44852
:102D40004430006800F44070B4F8B01001F44071F1
:102D5000884213D0BE484430006820F44077BC4815
:102D60004430006840F48030B94944310860084676
:102D7000006820F48030086008460760D4F8B0008E
:102D8000B0F5807F15D1FEF717FD064609E0FEF786
:102D900013FD801B41F28831884202D9032507E0E8
:102DA00038E0AB4844300068C0F340000028EED063
:102DB00000BF55BB00BFB4F8B00000F44070B0F5E0
:102DC000407F0ED1A2481C38006820F47C51A24AF2
:102DD000D4F8B000104041EA10109D491C39086039
:102DE00007E09B481C38006820F47C5098491C3947
:102DF0000860974844300068B4F8B010C1F30B0184
:102E000008439349443101E005E001E0086002E035
:102E1000A84600E0A846207800F0010068B3A06F43
:102E2000182819D005DC48B1082808D0102816D178
:102E30000BE0202811D0282811D10FE011E001214A
:102E4000201D03F067F905460BE0012104F1240081
:102E500003F012FA054604E003E002E001E0012578
:102E600000BF00BF55B97A482830006820F038000C
:102E7000A16F084376492831086000E0A846207811
:102E800000F00200022828D1606F062815D2DFE882
:102E900000F003040A11121311E00121201D03F0B8
:102EA00039F905460BE0012104F1240003F0E4F9AF
:102EB000054604E003E002E001E0012500BF00BF99
:102EC00055B963482830006820F00700616F084357
:102ED0005F492831086000E0A846207800F004002F
:102EE00004282AD1D4F89000062815D2DFE800F093
:102EF00003040A11121311E00121201D03F00AF945
:102F000005460BE0012104F1240003F0B5F9054664
:102F100004E003E002E001E0012500BF00BF5DB96D
:102F20004B482C30006820F00700D4F8901008437C
:102F300047492C31086000E0A846207800F02000C6
:102F4000202836D1D4F88C00B0F1405F1DD007DCCA
:102F500068B1B0F1805F0BD0B0F1005F18D10DE027
:102F6000B0F1804F12D0B0F1A04F11D10FE011E0BD
:102F70000021201D03F0CEF805460BE0022104F1EC
:102F8000240003F079F9054604E003E002E001E0E3
:102F9000012500BF00BF5DB92D482830006820F032
:102FA000E040D4F88C10084329492831086000E03B
:102FB000A846207800F04000402836D1D4F8980088
:102FC000B0F5406F1DD007DC68B1B0F5806F0BD055
:102FD000B0F5006F18D10DE0B0F5805F12D0B0F5FC
:102FE000A05F11D10FE011E00021201D03F092F845
:102FF00005460BE0022104F1240003F03DF90546EB
:1030000004E003E002E001E0012500BF00BF5DB97C
:103010000F482C30006820F4E050D4F89810084392
:103020000B492C31086000E0A846207800F08000B1
:1030300080283AD1D4F89C00B0F5C04F23D00DDCE5
:1030400098B1B0F5005F11D0B0F5804F1ED113E0FC
:103050002C44025800480258FFFCFF0FB0F5004F07
:1030600012D0B0F5204F11D10FE011E00021201D4A
:1030700003F050F805460BE0022104F1240003F0B0
:10308000FBF8054604E003E002E001E0012500BF93
:1030900000BF4DB9BE48006820F46040D4F89C10D1
:1030A0000843BB49086000E0A846207800F008000B
:1030B000082817D1D4F88000B0F5805F07D102212D
:1030C00004F1240003F0D8F808B14FF00108B0482B
:1030D000001F006820F44050D4F880100843AC4929
:1030E000091F0860207800F01000102815D1D4F8CE
:1030F0009400B0F5807F07D1022104F1240003F091
:10310000BBF808B14FF00108A148006820F44070F6
:10311000D4F8941008439E490860206800F4002009
:10312000B0F5002F26D1D4F8A00030B1B0F5803F23
:1031300009D0B0F5003F0ED10CE00021201D02F0B7
:10314000E9FF054609E0022104F1240003F094F8A8
:10315000054602E001E0012500BF00BF4DB98C48E3
:10316000006820F44030D4F8A01008438849086073
:1031700000E0A846206800F48020B0F5802F2DD113
:10318000D4F88400B0F5801F06D0B0F5001F0CD035
:10319000B0F5401F11D10FE07D482C38006840F495
:1031A00000307B492C39086009E0012104F124003A
:1031B00003F062F8054602E001E0012500BF00BF10
:1031C0005DB97348001F006820F44010D4F88410E3
:1031D00008436F49091F086000E0A846206800F412
:1031E0008030B0F5803F24D1E06C18B1B0F5803F5D
:1031F0000FD108E066482C38006840F4003064497C
:103200002C39086007E00221201D02F083FF0546EB
:1032100001E0012500BF00BF55B95D480C380068CA
:1032200020F48030E16C084359490C39086000E013
:10323000A846206800F00050B0F1005F07D10221DD
:1032400004F1240003F018F808B14FF001082068D9
:1032500000F40030B0F5003F27D1E06FA0B1B0F529
:10326000807F06D0B0F5007F0CD0B0F5407F0CD148
:1032700009E047482C38006840F4003044492C39B4
:10328000086004E003E002E001E0012500BF00BFA8
:1032900055B93F48001F006820F44070E16F0843B3
:1032A0003B49091F086000E0A846206800F4801030
:1032B000B0F5801F09D136480838006820F000407A
:1032C000216F0843324908390860206800F08050B7
:1032D000B0F1805F0AD12E484838006820F4804061
:1032E000D4F8B41008432A4948390860206800F42B
:1032F0000010B0F5001F09D125480838006820F0FB
:103300008070A16E0843224908390860206800F0E7
:103310008040B0F1804F11D100BF1D48483800688F
:1033200020F400401A494839086008460068D4F87B
:10333000B810084316494839086000BF206800F0FB
:103340000040B0F1004F09D111480C38006820F05E
:103350004050216D08430E490C390860206800F484
:103360000000B0F5000F0AD10948001F006820F4E2
:103370004000D4F8881008430549091F0860B8F1D7
:10338000000F02D10020BDE8F0810120FBE7000022
:10339000584402582DE9F04104460D4614B9012065
:1033A000BDE8F081BD48006800F00F00A8420ED2D1
:1033B000BA48006820F00F002843B8490860084662
:1033C000006800F00F00A84201D00120E8E7207853
:1033D00000F0040004280ED1B1492069096801F009
:1033E0007001884207D9AE48006820F0700021695A
:1033F0000843AB490860207800F00800082811D184
:10340000A749091D6069096801F07001884209D95E
:10341000A348001D006820F0700061690843A049BE
:10342000091D0860207800F01000102811D19C4977
:10343000091DA069096801F4E061884209D998482A
:10344000001D006820F4E060A16908439449091D4B
:103450000860207800F02000202811D19049083120
:10346000E069096801F07001884209D98C48083088
:10347000006820F07000E16908438949083108605C
:10348000207800F0020002280ED18549E068096822
:1034900001F00F01884207D98148006820F00F0031
:1034A000E16808437E490860207800F001000028A8
:1034B00050D07B48006820F47060A16808437849C8
:1034C00008606068022807D1754818380068C0F3A2
:1034D0004040F8B9012063E76068032807D17048CD
:1034E00018380068C0F34060A0B9012058E7606850
:1034F000012807D16A4818380068C0F3002048B98D
:1035000001204DE7664818380068C0F3800008B90C
:10351000012045E762480838006820F0070061682C
:1035200008435F4908390860FEF746F9064608E097
:10353000FEF742F9801B41F28831884201D903200D
:103540002EE757480838006800F038006168B0EB93
:10355000C10FEDD1207800F0020002280ED15049B1
:10356000E068096801F00F01884207D24C48006802
:1035700020F00F00E16808434949086047480068A7
:1035800000F00F00A8420ED94448006820F00F0058
:103590002843424908600846006800F00F00A8422E
:1035A00001D00120FCE6207800F0040004280ED1B0
:1035B0003B492069096801F07001884207D2384808
:1035C000006820F0700021690843354908602078C0
:1035D00000F00800082811D13149091D6069096807
:1035E00001F07001884209D22D48001D006820F0CA
:1035F0007000616908432A49091D0860207800F0BD
:103600001000102811D12649091DA069096801F48C
:10361000E061884209D22248001D006820F4E06081
:10362000A16908431E49091D0860207800F02000A8
:10363000202811D11A490831E069096801F07001A8
:10364000884209D216480830006820F07000E1690D
:10365000084313490831086000F076F810490968FA
:10366000C1F303210F4A515C01F01F0120FA01F759
:103670000B48006800F00F001146085C00F01F00C6
:1036800027FA00F008490860084807600848006801
:10369000FEF772FD8046404682E6000000200052A0
:1036A00018440258A80F0108501801244C1801248E
:1036B0004418012410B500F047F80D490968C1F31A
:1036C00003210C4A515C01F01F0120FA01F4084863
:1036D000006800F00F001146085C00F01F0024FA9B
:1036E00000F005490860054804600846006810BD00
:1036F00018440258A80F0108501801244C1801243E
:1037000000B5FFF7D7FF05490968C1F30211044A64
:10371000515C01F01F01C84000BD00001C4402586C
:10372000A80F010800B5FFF7C5FF05490968C1F3F7
:103730000221044A515C01F01F01C84000BD000095
:103740001C440258A80F0108F0B5824E366806F0F6
:10375000380636B1082E15D0102E15D0182E7DD172
:1037600014E07C4E103E3668C6F3401646B1794EE2
:10377000103E3668C6F3C107774E26FA07F000E020
:103780007548E5E07548E3E07548E1E0714E1836AC
:10379000366806F003046F4E18363668C6F3051116
:1037A0006C4E1C36366806F001056A4E24363668C3
:1037B000C6F3CC0616FB05F601EE106AB8EE410A18
:1037C000002971D024B1012C50D0022C6DD16DE0B4
:1037D000604E103E3668C6F340163EB35D4E103E56
:1037E0003668C6F3C1075C4E26FA07F301EE103ABD
:1037F000F8EE411A01EE101AB8EE411A81EE812A54
:103800009FED581AC0EE011A524E20363668C6F3A4
:10381000080601EE106AB8EE411A31EE811AF7EE91
:10382000001A31EE211A62EE010A1EE001EE101AB2
:10383000B8EE411ADFED4C1A81EE812A9FED491A4C
:10384000C0EE011A434E20363668C6F3080601EE74
:10385000106AB8EE411A31EE811A00E076E0F7EE18
:10386000001A31EE211A62EE010A5BE001EE101A35
:10387000B8EE411A9FED3D2AC2EE011A9FED391AAA
:1038800080EE012A334E20363668C6F3080601EE74
:10389000106AB8EE411A32EE011AB7EE002A31EE84
:1038A000021A61EE810A3DE04EE01DE001EE101AC1
:1038B000B8EE411ADFED2E1A81EE812A9FED291A0A
:1038C000C0EE011A234E20363668C6F3080601EE14
:1038D000106AB8EE411A31EE811AF7EE001A31EE95
:1038E000211A62EE010A1DE001EE101AB8EE411A2B
:1038F0009FED1E2AC2EE011A9FED1A1A80EE012AD0
:10390000144E20363668C6F3080601EE106AB8EE8B
:10391000411A32EE011AB7EE002A31EE021A61EEB8
:10392000810A00BF00BF0B4E20363668C6F346261C
:10393000721C01EE102AB8EE411AC0EE811ABCEEDC
:10394000E11A11EE100A00E0002001E0034800BF78
:1039500000BFF0BD104402580090D00300093D00A4
:1039600000127A00000000460024744C0024744ABF
:103970000024F44A2DE9F047044614B90120BDE8BB
:10398000F087207800F00100002870D0FE48006821
:1039900000F03808FC481830D0F80090B8F1100F4B
:1039A00006D0B8F1180F0FD109F0030002280BD18F
:1039B000F54810380068C0F3404000286AD06068BD
:1039C000002867D10120DAE700BF6068B0F5803FCA
:1039D00008D1ED481038006840F48030EA491039C9
:1039E00008602EE0606868B9E7481038006820F485
:1039F0008030E549103908600846006820F48020CE
:103A000008601EE06068B0F5A02F0DD1DE481038C8
:103A1000006840F48020DC491039086008460068DE
:103A200040F4803008600CE0D7481038006820F47B
:103A30008030D549103908600846006820F480209D
:103A4000086000BF606898B1FDF7B6FE054606E065
:103A5000FDF7B2FE401B642801D903208FE7CA4856
:103A600010380068C0F340400028F1D012E012E0A6
:103A7000FDF7A2FE054606E0FDF79EFE401B64280A
:103A800001D903207BE7C04810380068C0F34040EC
:103A90000028F1D100BF207800F0020002287BD17D
:103AA000B948006800F03808B7481830D0F80090DE
:103AB000B8F1000F05D0B8F1180F3AD109F00300A2
:103AC000B0BBB14810380068C0F3800018B1E0689E
:103AD00008B9012053E700BFFDF768FE41F203017A
:103AE000884219D8206940280AD1A7480C380068B4
:103AF00020F47C3040F40030A3490C39086016E013
:103B0000A1480C38006820F47C30216940EA01307B
:103B10009D490C3908600AE09B480C38006820F089
:103B2000FE40217C40EA016097490C39086067E05B
:103B3000FFE7E06888B394481038006820F0190067
:103B4000E1680843904910390860FDF735FE0546E5
:103B500006E0FDF731FE401B022801D903200EE7E5
:103B6000894810380068C0F380000028F1D000BFF9
:103B7000FDF71CFE41F2030188421BD82069402852
:103B80000CD181480C38006820F47C3040F40030BF
:103B90007D490C39086018E033E017E07A480C38AA
:103BA000006820F47C30216940EA013076490C3904
:103BB00008600AE074480C38006820F0FE40217C60
:103BC00040EA016070490C39086019E06E4810380D
:103BD000006820F001006C4910390860FDF7ECFD29
:103BE000054606E0FDF7E8FD401B022801D9032049
:103BF000C5E6654810380068C0F380000028F1D1A0
:103C000000BF207800F0100010287CD15E480068CA
:103C100000F038085C481830D0F80090B8F1080F70
:103C200006D0B8F1180F3DD109F00300012839D1B1
:103C3000554810380068C0F3002020B1E0698028A2
:103C400001D001209BE600BFFDF7B0FD41F203016A
:103C500088421AD8206A20280AD14B480C380068BC
:103C600020F0F84040F0804047490C39086018E0E7
:103C700045480C38006820F0F84094F8201040EADD
:103C8000816041490C3908600BE03F48001F006823
:103C900020F07C5094F8201040EA01603A49091F56
:103CA000086066E0E06978B337481038006840F093
:103CB0008000354910390860FDF77EFD054606E0B5
:103CC000FDF77AFD401B022801D9032057E62E4854
:103CD00010380068C0F300200028F1D000BFFDF7C5
:103CE00065FD41F2030188421CD8206A20280CD1CE
:103CF00025480C38006820F0F84040F08040224908
:103D00000C3908601AE035E019E01F480C380068EB
:103D100020F0F84094F8201040EA81601A490C39EC
:103D200008600BE01848001F006820F07C5094F8F1
:103D3000201040EA01601449091F086019E0124888
:103D40001038006820F080000F4910390860FDF736
:103D500033FD054606E0FDF72FFD401B022801D983
:103D600003200CE6084810380068C0F30020002843
:103D7000F1D100BF207800F00800082834D1606934
:103D8000D8B10148643001E010440258006840F0A6
:103D90000100EF490860FDF70FFD054606E0FDF75D
:103DA0000BFD401B022801D90320E8E5E848006824
:103DB000C0F340000028F2D016E0E548006820F08B
:103DC0000100E3490860FDF7F7FC054606E0FDF752
:103DD000F3FC401B022801D90320D0E5DC48006831
:103DE000C0F340000028F2D1207800F02000202805
:103DF00036D1A069D0B1D6487438006840F48050FC
:103E0000D34974390860FDF7D7FC054606E0FDF795
:103E1000D3FC401B022801D90320B0E5CC487438FC
:103E20000068C0F340300028F1D019E0C848743869
:103E3000006820F48050C64974390860FDF7BCFC66
:103E4000054606E0FDF7B8FC401B022801D9032017
:103E500095E5BF4874380068C0F340300028F1D1C0
:103E6000207800F0040004287DD1BA48006840F4AE
:103E70008070B8490860FDF79FFC054606E0FDF735
:103E80009BFC401B642801D9032078E5B1480068F9
:103E900000F480700028F2D000BFA068012808D18B
:103EA000AB48001F006840F00100A949091F0860E5
:103EB0002DE0A06868B9A648001F006820F0010046
:103EC000A349091F08600846006820F00400086044
:103ED0001DE0A06805280DD19D48001F006840F036
:103EE00004009B49091F08600846006840F0010073
:103EF00008600CE09648001F006820F0010094491B
:103F0000091F08600846006820F00400086000BF30
:103F1000A068A0B1FDF750FC054608E0FDF74CFC99
:103F2000401B41F28831884201D9032027E58848A7
:103F3000001F0068C0F340000028EFD013E0FDF739
:103F40003BFC054608E0FDF737FC401B41F2883199
:103F5000884201D9032012E57D48001F0068C0F3A4
:103F600040000028EFD1606A00287DD0784864388E
:103F7000006800F03800182877D0606A022875D1F0
:103F800073487438006820F0807071497439086093
:103F9000FDF712FC054606E0FDF70EFC401B02286B
:103FA00001D90320EBE46A4874380068C0F340602C
:103FB0000028F1D100BFD4E90A1041EA0010644999
:103FC0004C39096840F2F3329143084360494C3957
:103FD0000860208E401EC0F30800616B491E4FF43C
:103FE0007E4202EA41210843218F491ED20102EAA2
:103FF000014108433C21095D491E120202EA0161A8
:10400000084353494439086000BF081F006820F086
:104010000100091F08604E48403800684FF6F871EB
:104020008843A16C40EAC1004949403908604848CA
:104030004838006820F00C00216C08434449483996
:1040400008600846006820F00200616C084340499F
:10405000483908600846006840F480300860084627
:10406000006840F4003002E06FE041E025E00860C5
:104070000846006840F4802008600846006840F068
:104080000100086032487438006840F080703049A0
:1040900074390860FDF790FB054606E0FDF78CFBE0
:1040A000401B022801D9032069E4294874380068BC
:1040B000C0F340600028F1D047E02548743800681C
:1040C00020F08070224974390860FDF775FB0546C1
:1040D00006E0FDF771FB401B022801D903204EE4E6
:1040E0001B4874380068C0F340600028F1D12CE010
:1040F00017484C380768164844380668606A012833
:1041000021D007F00301A06A81421CD1C7F3051139
:10411000E06A884217D1C6F30801206B401E814235
:1041200011D1606B401EC6F3462188420BD1A06BB3
:10413000401EC6F30641884205D1E06B401EC6F31F
:104140000661884201D0012019E4002017E4000034
:1041500074440258004802584FF0E020006940F0D3
:1041600002004FF0E02108617047014600BF91F85E
:104170008000012801D102207047012081F88000D1
:1041800000BF2420C1F8840008680268086800683D
:1041900020F001000B68186022F0005200204866F1
:1041A000086802602020C1F8840000BF002081F868
:1041B000800000BF00BFDFE77047704770B504465E
:1041C0000D4600BF94F88000012801D1022070BD87
:1041D000012084F8800000BF2420C4F884002068F7
:1041E00006682068006820F00100216808602068E7
:1041F000806820F06060284321688860204602F0D3
:104200005BFA206806602020C4F8840000BF00200C
:1042100084F8800000BF00BFD9E770B504460D46A2
:1042200000BF94F88000012801D1022070BD012058
:1042300084F8800000BF2420C4F884002068066849
:104240002068006820F0010021680860206880680C
:1042500020F06040284321688860204602F02CFA54
:10426000206806602020C4F8840000BF002084F885
:10427000800000BF00BFD9E7704770477047014614
:10428000D1F88430D1F8882043EA0200704700005A
:104290002DE9F04704462068C56920680668206853
:1042A000876840F60F0005EA0009B9F1000F0FD149
:1042B00005F0200060B106F0200010B907F0805032
:1042C00030B1206F10B12046216F8847BDE8F087DC
:1042D000B9F1000F7ED0DE48384018B9DD483040D3
:1042E0000028F7D005F0010058B106F4807040B105
:1042F000012021680862D4F88C0040F00100C4F865
:104300008C0005F0020058B107F0010040B1022016
:1043100021680862D4F88C0040F00400C4F88C00D6
:1043200005F0040058B107F0010040B104202168F5
:104330000862D4F88C0040F00200C4F88C0005F04C
:10434000080070B106F0200010B9C148384040B1F3
:10435000082021680862D4F88C0040F00800C4F8F6
:104360008C0005F4006060B106F0806048B14FF445
:10437000006021680862D4F88C0040F02000C4F886
:104380008C00D4F88C00002844D005F0200050B1F7
:1043900006F0200010B907F0805020B1206F10B156
:1043A0002046216F8847D4F88CA02068806800F0F0
:1043B0004000402802D00AF0280028B3204602F02E
:1043C0006BFA2068806800F04000402818D120680F
:1043D000806800E01FE020F0400021688860E06F06
:1043E00050B19D48E16F0865E06FFCF7FBFE88B1B6
:1043F000E06F016D88470DE02046FFF73FFF09E0C1
:104400002046FFF73BFF05E02046FFF737FF00207F
:10441000C4F88C005AE7E06E012872D105F0100054
:1044200000286ED006F010000028FAD01020216875
:1044300008622068806800F0400040287ED1E06F6C
:1044400000688649884258D0E06F00688349183177
:10445000884252D0E06F00688049303188424CD0A9
:10446000E06F00687D494831884246D0E06F0068BF
:104470007A496031884240D0E06F006877497831EE
:1044800088423AD0E06F006874499031884234D055
:10449000E06F00687149A83188422ED0E06F006853
:1044A0006F49884229D0E06F00686D491831884211
:1044B00023D0E06F00686A49303188421DD0E06F38
:1044C000006867494831884217D0E06F0068644946
:1044D0006031884211D0E06F0068614978318842CC
:1044E0000BD0E06F00685E499031884205D0E06FE4
:1044F00000685B49A831884204D1E06F00684068D9
:1045000003E068E0E06F006840681FFA80F8B8F1E7
:10451000000F35D0B4F85C00404531DDA4F85E8072
:10452000E06FC069B0F5807F21D02068006820F47A
:104530008070216808602068806800E021E020F039
:104540000100216888602068806820F040002168B0
:1045500088602020C4F888000020E0662068006899
:1045600020F0100021680860E06FFCF7CDFBB4F884
:104570005C00B4F85E20801A81B22046FFF71CFE72
:10458000A4E634F85C0F6188401A1FFA80F860884E
:104590005C3CF8B1B8F1000F1CD02068006820F432
:1045A000907021680860206880682949C9430840E4
:1045B000216888602020C4F888000020E066206719
:1045C0002068006820F010002168086041462046FD
:1045D000FFF7F2FD7AE605F4801050B107F4800091
:1045E00038B14FF48010216808622046FFF745FE7D
:1045F0006CE605F0800058B106F0800010B907F4B1
:10460000000028B1606F10B12046616F88475DE6F9
:1046100005F0400030B106F0400018B1204602F02D
:1046200059F953E605F4000030B106F0804018B1A6
:104630002046FFF721FE49E605F0807030B106F014
:10464000004018B12046FFF7B8FD3FE600BF3DE649
:1046500001000010200100047F68000810000240E3
:104660001004024010B504460CB9012010BDA06929
:1046700000B100E000BFD4F8840028B9002084F81D
:104680008000204600F02AF82420C4F88400206826
:10469000006820F0010021680860204602F020FB3D
:1046A000012800D1E2E7A06A10B1204602F030F8FC
:1046B0002068406820F49040216848602068806845
:1046C00020F02A00216888602068006840F001001E
:1046D00021680860204602F097F8C7E710B5B6B029
:1046E0000446142131A8FBF781FFBC2102A8FBF787
:1046F0007DFF1D492068884233D1022002900020AE
:10470000209002A8FEF794F800BF1848006840F413
:104710008020164908600846006800F48020019057
:1047200000BF00BF00BF11480838006840F0080013
:104730000E49083908600846006800F0080001903A
:1047400000BF00BF4FF44070319002203290012032
:104750003390022034900720359031A90448FCF7AB
:1047600013FF36B010BD000000480040E844025876
:10477000000C025870B504460D461646D4F8880061
:10478000202825D105B10EB9012070BD00BF94F8D5
:104790008000012801D10220F7E7012084F8800081
:1047A00000BF0020E0660B49206888420AD02068DC
:1047B000406800F4000028B12068006840F0806084
:1047C0002168086032462946204602F04FFDDCE7AA
:1047D0000220DAE7000C005870472DE9F84F044634
:1047E0000E4617469946D4F8840020285ED106B1BB
:1047F00017B90120BDE8F88F00BF94F880000128A8
:1048000001D10220F6E7012084F8800000BF0020DB
:104810005434A06321202063FCF7CEFF824627801A
:104820006780543CA068B0F5805F04D1206910B95E
:104830000025B04602E035464FF0000800BF0020DA
:1048400084F8800000BF1DE05346002280212046EE
:10485000CDF8009002F092FD08B10320CAE745B9F7
:10486000B8F80000C0F308002168886208F1020867
:1048700003E02878216888626D1CB4F85600401E59
:10488000A4F85600B4F856000028DDD153460022A3
:1048900040212046CDF8009002F070FD08B10320C1
:1048A000A8E72020C4F884000020A3E70220A1E7A5
:1048B00070472DE9F04705468846D5F800904E46EA
:1048C000444606F5A06000EB4410806800F0040048
:1048D000042812D1042106F5A06000EB4410816089
:1048E00006F5A06000EB4410C06840F0020106F538
:1048F000A06000EB4410C160C9E006F5A06000EBC9
:104900004410806800F48070B0F5807F22D14FF4AD
:10491000807106F5A06000EB44108160072104EB74
:10492000440000EBC40205F1380000EB820080F87F
:10493000291006F5A06000EB4410C06840F00201A9
:1049400006F5A06000EB4410C160E1B2286802F0F7
:10495000ABFE9CE006F5A06000EB4410806800F020
:104960002000202806D1202106F5A06000EB44108D
:1049700081608CE006F5A06000EB4410806800F0D8
:104980000800082827D106F5A06000EB4410C06895
:1049900040F0020106F5A06000EB4410C160052163
:1049A00004EB440000EBC40205F1380000EB820088
:1049B00080F82910102106F5A06000EB44108160FA
:1049C000082106F5A06000EB44108160E1B2286880
:1049D00002F06AFE5BE006F5A06000EB4410806820
:1049E00000F48060B0F5806F27D106F5A06000EB81
:1049F0004410C06840F0020106F5A06000EB4410CE
:104A0000C160082104EB440000EBC40205F138004A
:104A100000EB820080F82910102106F5A06000EB61
:104A200044108160890106F5A06000EB44108160AC
:104A3000E1B2286802F038FE29E006F5A06000EB3C
:104A40004410806800F08000802820D106F5A06026
:104A500000EB4410C06840F0020106F5A06000EBD6
:104A60004410C160062104EB440000EBC40205F1D0
:104A7000380000EB820080F82910E1B2286802F0CB
:104A800013FE802106F5A06000EB4410816006F55E
:104A9000A06000EB4410806800F40070B0F5007F67
:104AA00017D106F5A06000EB4410C06840F0020189
:104AB00006F5A06000EB4410C160E1B2286802F086
:104AC000F3FD4FF4007106F5A06000EB4410816027
:104AD0009EE206F5A06000EB4410806800F0010043
:104AE00000287DD02869C8B104EB440000EBC40164
:104AF00005F1380000EB8100016906F5A06000EBCC
:104B000044100069C0F31200091A04EB440000EBE2
:104B1000C40205F1380000EB82008161012104EB41
:104B2000440000EBC40205F1380000EB820080F87D
:104B30002910002104EB440000EBC40205F1380009
:104B400000EB82004162012106F5A06000EB4410F9
:104B5000816004EB440000EBC40105F1380000EB78
:104B60008100C07950B104EB440000EBC40105F1B1
:104B7000380000EB8100C079022816D106F5A0604C
:104B800000EB4410C06840F0020106F5A06000EBA5
:104B90004410C160E1B2286802F086FD102106F5DC
:104BA000A06000EB441081606AE004EB440000EB7D
:104BB000C40105F1380000EB8100C079032827D13A
:104BC00006F5A06000EB4410006840F0005106F5C7
:104BD000A06000EB44100160012104EB440000E000
:104BE00093E000EBC40205F1380000EB820080F88E
:104BF000281004EB440000EBC40305F1380000EB7F
:104C0000830090F82820E1B22846FCF7DFFE37E069
:104C100004EB440000EBC40105F1380000EB810017
:104C2000C07901282CD1012104EB440000EBC4021F
:104C300005F1380000EB820080F8281004EB4400F6
:104C400000EBC40105F1380000EB8100007F80F02B
:104C5000010104EB440000EBC40205F1380000EB55
:104C60008200017704EB440000EBC40305F1380037
:104C700000EB830090F82820E1B22846FCF7A6FE5E
:104C8000286901282CD104EB440000EBC40105F194
:104C9000380000EB8100016904EB440000EBC40222
:104CA00005F1380000EB82000089B1FBF0F000F064
:104CB0000100002813D004EB440000EBC40105F10F
:104CC000380000EB8100007F80F0010104EB44001C
:104CD00000EBC40205F1380000EB8200017797E198
:104CE00004EB440000EBC40105F1380000EB810047
:104CF000007F80F0010104EB440000EBC40205F1E9
:104D0000380000EB8200017782E106F5A06000EB3D
:104D10004410806800F0020002287DD106F5A060F2
:104D200000EB4410C06820F0020106F5A06000EB23
:104D30004410C16004EB440000EBC40105F13800ED
:104D400000EB810090F8290001280BD1012104EB30
:104D5000440000EBC40205F1380000EB820080F84B
:104D60002810CFE004EB440000EBC40105F138004B
:104D700000EB810090F8290005280BD1052104EBF8
:104D8000440000EBC40205F1380000EB820080F81B
:104D90002810B7E004EB440000EBC40105F1380033
:104DA00000EB810090F8290006280BD004EB4400AA
:104DB00000EBC40105F1380000EB810090F82900F8
:104DC00008284FD104EB440000EBC40105F1380082
:104DD00000EB8100406A401C04EB440101EBC4027B
:104DE00005F1380101EB8201486204EB440000EB5D
:104DF000C40105F1380000EB8100406A022817D990
:104E0000002104EB440000EBC40205F1380000EB84
:104E100082004162042100E089E004EB440000EBE1
:104E2000C40205F1380000EB820080F8281069E028
:104E3000022104EB440000EBC40205F1380000EB52
:104E4000820080F8281006F5A06000EB4410076887
:104E500027F0804747F0004706F5A06000EB4410BC
:104E600007604FE004EB440000EBC40105F138009B
:104E700000EB810090F82900032819D1022104EBEE
:104E8000440000EBC40205F1380000EB820080F81A
:104E9000281006F5A06000EB4410076827F0804753
:104EA00047F0004706F5A06000EB4410076029E0DA
:104EB00004EB440000EBC40105F1380000EB810075
:104EC00090F8290007281DD104EB440000EBC40131
:104ED00005F1380000EB8100406A401C04EB4401FE
:104EE00001EBC40205F1380101EB820148620421A3
:104EF00004EB440000EBC40205F1380000EB820033
:104F000080F82810022106F5A06000EB44108160B3
:104F100004EB440000EBC40305F1380000EB830010
:104F200090F82820E1B22846FCF750FD70E006F525
:104F3000A06000EB4410806800F01000102867D1DA
:104F400004EB440000EBC40105F1380000EB8100E4
:104F5000C07903281AD1002104EB440000EBC402FD
:104F600005F1380000EB8200416206F5A06000EB1D
:104F70004410C06840F0020106F5A06000EB441048
:104F8000C160E1B2286802F08FFB3BE004EB440013
:104F900000EBC40105F1380000EB8100C07950B18D
:104FA00004EB440000EBC40105F1380000EB810084
:104FB000C079022826D1002104EB440000EBC40292
:104FC00005F1380000EB820041622869D0B9032165
:104FD00004EB440000EBC40205F1380000EB820052
:104FE00080F8291006F5A06000EB4410C06840F07E
:104FF000020106F5A06000EB4410C160E1B2286830
:1050000002F052FB102106F5A06000EB4410816015
:10501000BDE8F0872DE9F04705460F46D5F800902A
:105020004E463C4606F5A06000EB4410806800F058
:105030000400042812D1042106F5A06000EB4410FE
:10504000816006F5A06000EB4410C06840F00201EA
:1050500006F5A06000EB4410C1607BE306F5A0609C
:1050600000EB4410806800F02000202836D1202179
:1050700006F5A06000EB4410816004EB440000EBF7
:10508000C40105F1380000EB810040790128E4D12A
:10509000002104EB440000EBC40205F1380000EBF2
:1050A00082004171022104EB440000EBC40205F1CF
:1050B000380000EB820080F8281006F5A06000EBB5
:1050C0004410C06840F0020106F5A06000EB4410F7
:1050D000C160E1B2286802F0E7FA3BE306F5A060A0
:1050E00000EB4410806800F40070B0F5007F17D129
:1050F00006F5A06000EB4410C06840F0020106F520
:10510000A06000EB4410C160E1B2286802F0CCFA64
:105110004FF4007106F5A06000EB4410816019E3C4
:1051200006F5A06000EB4410806800F00100E8B3D1
:10513000002104EB440000EBC40205F1380000EB51
:105140008200416206F5A06000EB4410806800F028
:10515000400040280FD1012104EB440000EBC402C1
:1051600005F1380000EB82004171402106F5A06096
:1051700000EB4410816006F5A06000EB4410C068AD
:1051800040F0020106F5A06000EB4410C160E1B2FE
:10519000286802F089FA012106F5A06000EB4410AE
:1051A000816004EB440000EBC40200E006E005F17E
:1051B000380000EB820080F82910CBE206F5A060F1
:1051C00000EB4410806800F04000402835D10421F5
:1051D00004EB440000EBC40205F1380000EB820050
:1051E00080F82910012104EB440000EBC40205F112
:1051F000380000EB82004171002104EB440000EB19
:10520000C40205F1380000EB8200416206F5A0609F
:1052100000EB4410C06840F0020106F5A06000EB0E
:105220004410C160E1B2286802F03EFA402106F560
:10523000A06000EB441081608CE206F5A06000EBFA
:105240004410806800F00800082821D1082106F5E4
:10525000A06000EB4410816006F5A06000EB4410F4
:10526000C06840F0020106F5A06000EB4410C16088
:10527000E1B2286802F018FA052104EB440000EBC3
:10528000C40205F1380000EB820080F8291061E2C9
:1052900006F5A06000EB4410806800F010001028B4
:1052A00049D1002104EB440000EBC40205F13800B1
:1052B00000EB82004162032104EB440000EBC402D6
:1052C00005F1380000EB820080F8291004EB44005F
:1052D00000EBC40105F1380000EB8100407998B97A
:1052E00004EB440000EBC40105F1380000EB810041
:1052F000007948B9012104EB440000EBC40205F138
:10530000380000EB8200417106F5A06000EB44100C
:10531000C06840F0020106F5A06000EB4410C160D7
:10532000E1B2286802F0C0F9102106F5A06000EB98
:10533000441081600EE206F5A06000EB4410806826
:1053400000F08000802872D12869D8B9062104EBCA
:10535000440000EBC40205F1380000EB820080F845
:10536000291006F5A06000EB4410C06840F002016F
:1053700006F5A06000EB4410C160E1B2286802F0BD
:1053800093F94CE004EB440000EBC40105F1380054
:1053900000EB8100406A401C04EB440101EBC402B5
:1053A00005F1380101EB8201486204EB440000EB97
:1053B000C40105F1380000EB8100406A022823D9BE
:1053C000002104EB440000EBC40205F1380000EBBF
:1053D00082004162042104EB440000EBC40205F1A9
:1053E000380000EB820080F8281004EB440000EB4A
:1053F000C40305F1380000EB830090F82820E1B2E7
:105400002846FCF7E3FA0AE0022104EB440000EB33
:10541000C40205F1380000EB820080F828108021DA
:1054200006F5A06000EB4410816093E1FFE706F50C
:10543000A06000EB4410806800F48060B0F5806FDD
:1054400027D106F5A06000EB4410C06840F00201CF
:1054500006F5A06000EB4410C160E1B2286802F0DC
:1054600023F9102106F5A06000EB4410816089014A
:1054700006F5A06000EB44108160082104EB4400B5
:1054800000EBC40205F1380000EB820080F829101F
:1054900060E106F5A06000EB4410806800F00200B7
:1054A0000228C2D106F5A06000EB4410C06820F0CD
:1054B000020106F5A06000EB4410C16004EB44005B
:1054C00000EBC40105F1380000EB810090F82900E1
:1054D00001287CD1012104EB440000EBC40205F15A
:1054E000380000EB820080F8281004EB440000EB49
:1054F000C40105F1380000EB8100C07902280AD010
:1055000004EB440000EBC40105F1380000EB81001E
:10551000C079032844D12869012842D104EB440012
:1055200000EBC40105F1380000EB81004069002860
:1055300036D004EB440000EBC40105F1380000EB69
:105540008100416904EB440000EBC40205F138001E
:1055500000EB820000890844401E04EB440101EB8B
:10556000C40205F1380101EB82010989B0FBF1FAAF
:105570000AF00100002813D004EB440000EBC40142
:1055800005F1380000EB8100407F80F0010104EB61
:10559000440000EBC40205F1380000EB82004177C3
:1055A000C4E004EB440000EBC40105F1380000EB5B
:1055B0008100407F80F0010104EB440000EBC40255
:1055C00005F1380000EB82004177AFE0FFE704EB24
:1055D000440000EBC40105F1380000EB810090F8B5
:1055E000290003280BD1022104EB440000EBC40284
:1055F00005F1380000EB820080F8281096E004EBFB
:10560000440000EBC40105F1380000EB810090F884
:10561000290004280BD1022104EB440000EBC40252
:1056200005F1380000EB820080F828107EE004EBE2
:10563000440000EBC40105F1380000EB810090F854
:10564000290005280BD1052104EB440000EBC4021E
:1056500005F1380000EB820080F8281066E004EBCA
:10566000440000EBC40105F1380000EB810090F824
:10567000290006280BD004EB440000EBC40105F11F
:10568000380000EB810090F8290008284ED104EB87
:10569000440000EBC40105F1380000EB8100406AD2
:1056A000401C04EB440101EBC40205F1380101EB9D
:1056B0008201486204EB440000EBC40105F13800AC
:1056C00000EB8100406A022815D9002104EB440058
:1056D00000EBC40205F1380000EB820041620421B6
:1056E00004EB440000EBC40205F1380000EB82003B
:1056F00080F828101AE0022104EB440000EBC402F9
:1057000005F1380000EB820080F8281006F5A06053
:1057100000EB4410D0F8008028F0804848F00048A2
:1057200006F5A06000EB4410C0F80080022106F5E9
:10573000A06000EB4410816004EB440000EBC40364
:1057400005F1380000EB830090F82820E1B22846EC
:10575000FCF73CF9BDE8F0877CB504462668354681
:10576000D5F840040190D5F840040090009820F04E
:105770002E000090019800F0020002280AD1019842
:1057800000F0010010B12046FCF73CF8009840F012
:1057900002000090019800F0080008282AD1009823
:1057A00040F008000090019800F0040004281ED189
:1057B000A06902280FD1019800F4C020B0F5802F15
:1057C00004D10221206802F085FA0CE00121206852
:1057D00002F080FA07E0E068012804D14EF660216B
:1057E00040F2044041512046FCF759FC02E02046BB
:1057F000FCF754FC019800F02000202803D1009809
:1058000040F0200000900098C5F840047CBD2DE9D0
:10581000F84F0546D5F800B05F462868D0F82080DC
:1058200008F00F04C8F343400090C8F30A1600982C
:10583000022806D003287DD005287CD007287BD1FC
:10584000A3E0002E79D004EB440000EBC40105F185
:10585000380000EB8100C06800286ED004EB4400E3
:1058600000EBC40105F1380000EB8100806981196B
:1058700004EB440000EBC40205F1380000EB8200A9
:105880004069814272D8B2B204EB440303EBC40C0A
:1058900005F1380303EB8C03D968286802F041FA5C
:1058A00004EB440000EBC40105F1380000EB81007B
:1058B000C068811904EB440000EBC40205F1380014
:1058C00000EB8200C16004EB440000EBC40105F171
:1058D000380000EB81008069811904EB440000EB83
:1058E000C40205F1380000EB8200816107F5A06079
:1058F00000EB44100069C0F3C94A04EB440000EB1C
:10590000C40105F1380000EB81000089B04238D1B4
:10591000BAF1000F35D007F5A06000EB4410D0F8C5
:10592000009029F0804949F0004907F5A06000EB9C
:10593000441003E028E025E025E022E0C0F80090D4
:1059400004EB440000EBC40105F1380000EB8100DA
:10595000007F80F0010104EB440000EBC40205F17C
:10596000380000EB820001770BE0FFE7042104EB35
:10597000440000EBC40205F1380000EB820080F81F
:10598000281003E002E000BF00BF00BF00BFBDE879
:10599000F88F00BFFEE7000000B587B000BF1E48CB
:1059A000006840F002001C4908600846006800F0EA
:1059B0000200019000BF00BF00BF0846006840F031
:1059C000100008600846006800F01000019000BF59
:1059D00000BF01200290039004900320059002A9CB
:1059E0000E48FBF7D1FD02200290012003900490A5
:1059F0000320059002A90A48FBF7C6FD4FF480403A
:105A000002900120039004900320059002A903480E
:105A1000FBF7BAFD07B000BDE0440258000402588D
:105A2000001002580FB4F0B5A3B004460D46164658
:105A30002CA82290802102A8FAF7D8FD802102A884
:105A4000229B2B9A02F058FA00202290002C0EDBA9
:105A5000204609F0B5FA074602A833462A463946D9
:105A6000009005A002F038FA0BA002F035FA23B03E
:105A7000F0BC5DF814FB00001B5B33346D5B252D1F
:105A800035735D205B252D3230732534645D202015
:105A900020202573000000001B5B306D0D0A000004
:105AA0001FB5FCF79BFB01208DF800004FF0105054
:105AB000019012208DF8080003208DF80B000120C2
:105AC0008DF80F008DF80E0000208DF80D008DF878
:105AD000010001208DF80A0000208DF809008DF8E2
